:020000041000EA
:1000000000B5324B212058609868022188439860DF
:10001000D860186158612E4B002199600221596106
:100020000121F02299502B49196001219960352056
:1000300000F044F80222904214D00621196600F024
:1000400034F8196E01211966002018661A6600F04E
:100050002CF8196E196E196E052000F02FF8012189
:100060000842F9D1002199601B49196000215960AB
:100070001A491B48016001219960EB211966A021F2
:10008000196600F012F800219960164914480160C1
:100090000121996001BC002800D000471248134993
:1000A000086003C880F30888084703B5996A0420EC
:1000B0000142FBD001200142F8D103BD02B5186610
:1000C0001866FFF7F2FF186E186E02BD00000240BE
:1000D000000000180000070000035F00212200005C
:1000E000F4000018222000A00001001008ED00E03C
:1000F00000000000000000000000000074B24E7A12
:1001000000200420F7010010C3010010C5010010F9
:10011000C1010010C1010010C1010010C101001097
:10012000C1010010C1010010C1010010A53D001067
:10013000C1010010C1010010013E0010453E001039
:10014000CD010010CD010010CD010010CD01001037
:10015000CD010010CD010010CD010010CD01001027
:10016000CD010010CD010010CD010010CD01001017
:10017000CD010010CD010010CD010010CD01001007
:10018000CD010010CD010010CD010010CD010010F7
:10019000CD010010CD010010CD010010CD010010E7
:1001A000CD010010CD010010CD010010CD010010D7
:1001B000CD010010CD010010CD010010CD010010C7
:1001C00000BE00BE00BE00BE00BE00BEEFF3058054
:1001D000103800BEF2EB8871685B00108C5B001079
:1001E0003402001090A31AE700201F49086006C8D7
:1001F00081F3088810471D48006800282FD10DA4FE
:100200000ECC002902D000F012F8F9E71849194A7B
:10021000002000E001C19142FCD1174988471749ED
:1002200088471749884700BEFDE701C901C29A42C5
:10023000FBD370478C5B0010C0000020AC0A00208C
:10024000786500100000042000000420786500108C
:10025000001004200010042000000000704709482E
:1002600001F098FC0047000008ED00E0000000D01D
:10027000B00A002058100020D9190010A503001062
:10028000011B00105756000006005250ABB36053DC
:10029000A45A001006005250861C0302B45A0010E3
:1002A000060052505422A29DBC5A00100500525024
:1002B000DE65F46878650010F8B5C0460448054B63
:1002C00010B5834203D0044B002B00D0984710BDDB
:1002D000AC0A0020AC0A00200000000006480749D4
:1002E000091A8B10C90FC91810B5491003D0044B57
:1002F000002B00D0984710BDAC0A0020AC0A0020AB
:100300000000000010B5074C2378002B09D1FFF73F
:10031000D5FF054B002B02D0044800E000BF0123AD
:10032000237010BD000E002000000000205A0010B5
:10033000054B10B5002B03D00449054800E000BF71
:10034000FFF7CCFF10BDC04600000000040E0020E7
:10035000205A001070B50020D02400F05FF801236F
:1003600001260125240663624B20A56102F02AFDC7
:100370004B20666102F026FDF6E7C04670B501200D
:10038000D02400F04BF802230226022524066362E3
:100390000A20A56102F016FD0A20666102F012FD36
:1003A000F6E7C04630B583B001F080FE0025012499
:1003B000802200230949520009480195009402F067
:1003C0004FF8802200230749520007480195009406
:1003D00002F046F802F056FBFEE7C046205A001035
:1003E000550300102C5A00107D030010094A8300A9
:1003F00094464022634410B51C68C0006240C0248B
:1004000014408022520113431C60034B9C466044FD
:10041000416010BD04C00140004001400123D022D2
:100420008340120693629361094A830094464022F6
:1004300063441968C0004A40C02111408022520123
:1004400013431960034B9C46052360444360704787
:1004500004C0014000400140024B18688007C00FF3
:100460007047C04600C0064070B5EFF3108C72B6FE
:100470000D4D2B68002BFCD0BFF35F8F0724CB08FA
:10048000C618C05C01230C40A3401C00044003427A
:1004900007D103433370BFF35F8F2C608CF3108858
:1004A00070BD100001F030FB2C0100D00021044B86
:1004B000044ABFF35F8F02C39342FAD17047C0462C
:1004C000000100D0800100D0044A1078431CDBB248
:1004D000172B00D9102313707047C04698010020D5
:1004E00001238340002904D0034A1360034A1360A8
:1004F0007047034A1360FBE780E200E000E100E0A0
:1005000080E100E0024B10309B688000C0587047CB
:1005100000ED00E070B50D00EFF3108672B60F4AE3
:100520001368002BFCD0BFF35F8F0D4B10309B681E
:1005300084001B590B4A934203D09D4201D001F025
:10054000FBFA074B9B681D51BFF35F8FBFF35F8FB3
:100550000022024B1A6086F3108870BD240100D07F
:1005600000ED00E0CD010010F0B5DE4657464E46E6
:100570004546E0B50C0083B0EFF3108972B6584AD7
:100580001368002BFCD0BFF35F8F564B9A680300B3
:1005900010339F00D559544A9046954232D0A54217
:1005A00043D0524EAA1B2F2A2CD8012282409246B9
:1005B00051464F4A12681140019151464D4A11600F
:1005C000BFF35F8FEFF305829346002A33D10123F7
:1005D0002A009A4393689C4208D177E04B005B184D
:1005E0009B00F3189968A1422AD01A00062151569F
:1005F0000029F3DA019B002B19D052463E4B1A60BA
:100600003B4B1A60374B9B68DD51BFF35F8FBFF3E5
:100610005F8F0022324B1A6089F3108803B0F0BC60
:10062000BB46B246A946A046F0BD1500EAE75246D1
:10063000304B1A60E6E79342C9D001F07DFAC6E775
:1006400006215956002921DB4A0050188000341831
:100650008046A0689860E079D8710620205698718D
:10066000002824DBA488F01A6405241544440019EA
:10067000E0240005400D24022043988052181F4BAF
:100680009200B6181A781970B271B3E7594600296A
:100690000FD1FF3191711A49918018490A789A71E6
:1006A000184A9B1B5B415A43120D0A70A2E7164879
:1006B000E3E7164A1649D21A083A5002400D0143A0
:1006C0009980144952080A43DA8093E7062151566B
:1006D00013000029B8DA5A46002AEAD14546DCE779
:1006E000240100D000ED00E0CD0100109C010020AD
:1006F00000E100E080E100E080E200E05510002031
:1007000001BDFFFFAAAA000001BD0000D601002024
:1007100000F0FFFF00F8FFFF70B5EFF30581012443
:100720000443EFF3108C72B6214A1368002BFCD0FF
:10073000BFF35F8F1F4B05001F4AED1A6D416A43DF
:10074000120D1E4D8900AE6852B27658A6421CD0DA
:100750000621595691421CD012215956914222D05D
:100760001E215956914220D02A21595603249142E4
:1007700010D0134B19781A708171BFF35F8F00226C
:100780000B4B1A608CF3108870BDAB680D4C5C503D
:10079000EFE700246100091989005B18FF219971B6
:1007A00009499980E5E70124F4E70224F2E7C0460D
:1007B000240100D09C010020AAAA000000ED00E066
:1007C00055100020CD01001001BDFFFF054B064A6A
:1007D0001360064A136053609360D36013615361E2
:1007E000936170478080808000E400E004E400E0D2
:1007F000024B9C4661448900016070474000003410
:1008000010B50400FFF760FE01002000FFF7F0FFC5
:10081000FF232371BFF35F8F10BDC04610B50400E6
:10082000FFF752FE01002000FFF7E2FFFF23A38045
:10083000BFF35F8F10BDC04683680B4810B5844678
:1008400061446244090112019A18591854684B68AE
:1008500001209C4201D802D00020C0B210BD126815
:100860000B689A42F9D8F7E7FFFFFF0F0A4B1968A8
:10087000EFF3108072B60A68002AFCD0BFF35F8FD6
:100880001B68BFF35F8F00221A6080F3108840BF9F
:10089000002000217047C04638100020F8B55746A8
:1008A0004E464546DE46E0B599460CAB1C780DAB8E
:1008B0001B78060090469A460768002C11D1BC7B35
:1008C000002C42D065003B682D19033D59194B7827
:1008D000BB73002B00D1FB7300238B704B700B702C
:1008E00004E065003B682D19033D5919B2682A4B95
:1008F00094464246E3181B0163441A604A465A6014
:100900000A9A9A600B9ADA6000238B704B700B7016
:100910007B7B9B46002B2BD022005946B8687B6816
:1009200098473A68002816D05B4658465B005B44FF
:100930005519033BA870D118D35C002B00D06B7005
:100940005B460C707B73A34513D0F0BCBB46B2462C
:10095000A946A046F8BD5B465B005B44033BD31849
:100960009C705119525D002A00D05A705B460B7082
:100970007C7342464B46307D00F02EFB051E06D0B0
:100980005346002B03D12100306800F049FD0E9B37
:10099000002BDAD01D70D8E7FFFFFF0FF0B5DE4661
:1009A00057464E4645460023E0B58BB00893674B4B
:1009B0008200D45800239B46099000F093FA6268A5
:1009C00006000F00EFF3108572B61368002BFCD001
:1009D000BFF35F8F23689C465B7B9946002B00D159
:1009E00069E0A2685A4B90464B441B019844434629
:1009F0001A685B6810001900801BB941002900DCEF
:100A000063E0099800F0E8FA0023002298460023EA
:100A10000692079300239A466368BFF35F8F5A4696
:100A20001A6085F310885346002B08D10028C4D1E2
:100A30000BB0F0BCBB46B246A946A046F0BD089B31
:100A4000414618024B461843D047626806000F0023
:100A5000EFF3108572B61368002BFCD0BFF35F8FE5
:100A6000002F50DB33003B4302D02369002B61D1C0
:100A70002368D97B002907D04A00521819688C4690
:100A800049466244033A51709A7B002A01D14A4692
:100A90009A734A46DA734B46E168013BCA5C0132FD
:100AA000CA545B4623616368BFF35F8F5A461A607E
:100AB00085F3108881E700230022984600230692E0
:100AC0000793002300209A46A6E7002902D10028B8
:100AD00000D096E70021604600F020FC43461A68EB
:100AE0005B680692079343469B689A464346DB68D9
:100AF0009846E3684B44013B1B7808931B02034371
:100B00002361002088E72369002BB1D0069A079B58
:100B1000921BBB41002B15DB594604910121039127
:100B20004946029141460191514620000091FFF74C
:100B3000B5FEB6E700F0D6F932003B0012184B4183
:100B4000002BE9DA0122034B5242E5E72410002092
:100B5000FFFFFF0FFFFFFF7F10B5144C6368002BF2
:100B600004D00A211248FFF743FE10BD2300114AAA
:100B70001021206800F0ECFA032000F0A7F9032010
:100B800000F094FA03200C4900F0E0F9FFF79CFC18
:100B90000A4B9C4603232375D0231B061B68604425
:100BA0006375074B80006060DC60DAE7E4010020D9
:100BB00038100020390800109D0900104000003452
:100BC00024100020F0B54E464546DE465746E0B5B7
:100BD00085B0019310AB1B78060003930023994660
:100BE000984600927268EFF3108B72B61368002B70
:100BF000FCD0BFF35F8F3568AC7B002C3DD0670025
:100C00002B683F19033FDB195A78AA73002A00D1D9
:100C1000EA73B168474A8C4600980199A2181201FC
:100C20006244106051600E9991600F99D160424604
:100C30009A705A701A706B7B9A46002B67D022000C
:100C40001900A8686B6898472A68002852D0534654
:100C500050465B005344D719033BB870D118D35C9E
:100C6000002B00D07B7053460C706B7354454FD0F3
:100C7000F3681B19013B187800E000207368BFF38C
:100C80005F8F42461A608BF31088002C4FD04B4682
:100C9000002B08D10002204305B0F0BCBB46B24691
:100CA000A946A046F0BD039B002B3ED00E9B002022
:100CB0000F999847030004000D000B4335D000291D
:100CC0000ADA009A019B121BAB4100920193002BA0
:100CD0000ADB039B994685E700F004F924184D418F
:100CE00000940195002DF4DA0123134C5B4200932C
:100CF0000194EEE753465B005344033BD3189C70CA
:100D0000D119D25D002A00D05A7053460B706C7313
:100D1000307D009A019B00F05FF981460028A7D042
:100D20002100306800F07CFBA2E70020B4E701203E
:100D30004042B1E7FFFFFF0FFFFFFF7FF0B5EFF38A
:100D40000583CE46474680B505000C0085B0002BD4
:100D500012D02C4A0020536A9C4203D8926A013078
:100D6000AA4204D305B0C0BCB946B046F0BDE01AF3
:100D7000421E9041C0B2F5E7234E02930193234BEC
:100D80000200009330000B00FFF71CFF031EE0DDA4
:100D900020BF7168EFF3108772B60A68002AFCD092
:100DA000BFF35F8FDAB294463068427B62451DD054
:100DB000FF221A40510089460168914488464946FD
:100DC000414403398978002913D0F1681B0A884609
:100DD0004244013A1278DBB29A420FD07368BFF3F3
:100DE0005F8F00221A6087F31088B2E7FF221A4053
:100DF000EBE732699342F1D13161EFE7614600F0F0
:100E00000FFBEBE700400540E40100206D080010F7
:100E1000F0B5EFF30582D6464F4646461000C0B502
:100E20001038EFF3108872B6214C2368002BFCD0E9
:100E3000BFF35F8F0123190081401E4D1F006963BE
:100E4000AA461D4D29601D4D2E78AC463500C54083
:100E50002F402B4209D1BFF35F8F276088F31088A2
:100E6000E0BCBA46B146A846F0BD5346144D5F6A91
:100E700083005D59AF420ED3124A8E439B5862469F
:100E80001670BFF35F8F0022226088F31088002B5A
:100E9000E6D09847E4E70C4B92009C466244136806
:100EA0001360BFF35F8F0023236088F31088D7E7B8
:100EB000280100D0004005403C700540561000203D
:100EC0003C100020940F0020D03F054010B50100D9
:100ED000024A0348FFF7C8FA10BDC046385A00104E
:100EE00054100020034B596A0A00986A596A8A42D2
:100EF000FAD170470040054070B504000D00124A59
:100F0000536A1900966A536A8B42FAD1300019006D
:100F100024184D41AB4211D80ED02B000A494A6A21
:100F20009A42FCD307D1084A02E0516A994202D1A1
:100F3000916AA142F9D370BDA642EED901230124E2
:100F40006442E5175B42E9E70040054070B50400E4
:100F50000D00EFF3108672B61A4A1368002BFCD00E
:100F6000BFF35F8F002D1BD02000FFF7CBFA16498F
:100F700081420AD02000FFF7CDFA01212000FFF7BF
:100F8000AFFA0123A340114A1360114BA400E550AE
:100F9000BFF35F8F00220B4B1A6086F3108870BD81
:100FA0000B4BA200D5500122A2400A4920000B7829
:100FB00093430B700449FFF7D7FA00212000FFF795
:100FC0008FFAE5E7280100D0110E001038600540C7
:100FD000940F002056100020F0B54F46D6464646E6
:100FE000C0B507002C4C616A0D00A66A616AA9426F
:100FF000FAD18B4208D805D00120E0BCBA46B146F0
:10100000A846F0BDB242F7D9EFF3108A72B6234872
:1010100001680029FCD0BFF35F8F0125BD40204946
:101020001D4C8846097889462943C9B28C464146F9
:1010300060460870391D1B48890065630A51B90074
:101040000B50216A0020294219D0616A0800A66A63
:10105000616A8142FAD18B4219D801D1B24216D8C5
:10106000CC4516D00C4B1F201D625D630123074049
:10107000BB400D4A1E38136043464A461A70BFF300
:101080005F8F0022054B1A608AF31088B5E70020B5
:10109000F5E70120F3E7C04600400540280100D0F5
:1010A000561000203C10002080E200E0EFF3108C8E
:1010B00072B60A490B68002BFCD0BFF35F8F012387
:1010C0008340074A0748136202789A430270BFF3CD
:1010D0005F8F00230B608CF310887047280100D0CD
:1010E000004005405610002070B5050014001600A1
:1010F000002915D00C00002A12D080686B68984730
:10110000296800280ED073009B196200033B121956
:10111000CB18033A9C7088188A5C002A15D1067097
:10112000200070BD63001B197200033B9219CB189D
:10113000033A9E7088188A5C002A02D10470340039
:10114000EEE75A7004703400EAE75A700670E7E779
:1011500030B583600023CCB2437301330473426023
:101160008373C4730D000068012C06D9421C01333F
:10117000DBB2137003329C42F9D1FF2129404B00AE
:101180005918002340180338437030BDF8B5CE46D7
:10119000474606000C0080B5002907D04D000368C3
:1011A0006D18033D5A195778002F04D12000C0BC98
:1011B000B946B046F8BD7900C91903398846434499
:1011C0005978894600215970517073683A0021009E
:1011D000806898473368002814D042469A18947063
:1011E00059195B5D002B00D053700F7027004946E2
:1011F0003000FFF7CBFF390002003000FFF774FF2B
:101200000400D3E7424641465D19AF709A185B5C13
:10121000002B00D06B701470E9E7C046F0B557465C
:101220004546DE464E46E0B50D006B0001685B1991
:10123000DF1E0400C85D83B00192CA19002850D097
:1012400043001B18033BCB185E78B446002E1AD11E
:10125000019E002E42D0E67B002E04D073009B1925
:10126000CB18033B5D70A37B002B00D1A573E57306
:1012700000282FD10023537003B0F0BCBB46B24608
:10128000A946A046F0BD72006244033A89184A7824
:10129000904600224A7091465A70010032002000A8
:1012A000FFF722FF43468246002B07D05B002168F0
:1012B0004344033BCB185A78002A16D14246514684
:1012C0002000FFF711FF2168019BCA19002BC2D132
:1012D0000028CFD043001B18033BCB180021997086
:1012E000C8E7019B002BB6D1C4E750008018033833
:1012F000091848788346484648705870414620008F
:10130000FFF7F2FE594680462000FFF73FFF4146B7
:1013100002002000FFF7E8FE8046CFE7F0B5574611
:101320004546DE464E46E0B583B00191457B04005C
:101330006B0000685B19DF1EC15DC219002952D025
:101340004B005B18033BC3185E78B446002E1CD1DB
:10135000019E002E44D0E67B002E04D073009B1922
:10136000C318033B5D70A37B002B00D1A573E5730D
:10137000002931D1002328005370617303B0F0BC01
:10138000BB46B246A946A046F0BD72006244033A8D
:101390008018427890460022427091465A70200090
:1013A0003200FFF7A1FE43468246002B07D05B00C8
:1013B00021684344033BCB185A78002A17D1424690
:1013C00051462000FFF790FE019B01002068C219E2
:1013D000002BC0D10029CDD04B005B18033BC318B4
:1013E00000209870C6E7019B002BB4D1C2E75000E3
:1013F0008018033809184878834648464870587062
:1014000041462000FFF770FE594680462000FFF756
:10141000BDFE414602002000FFF766FE8046CEE793
:1014200070B5040000292CD0437B8B422ED0056878
:1014300048004018033828188278002A21D0530029
:101440009B18033BEA5CEE188A4202D11BE0002A9B
:1014500008D053009B18033BEB185A788A42F6D108
:1014600042785A7000230122837043702000FFF7F6
:10147000D5FE617B02002000FFF736FE607301207D
:1014800000E0002070BD43783370EBE701221900C3
:10149000FFF7C4FE60730120F4E7C046F8B5CE46FE
:1014A0004746040080B506200E0000F023FA051E12
:1014B00051D0524B5249E21853425A418023DB0328
:1014C0009C4692054F4B62441A604F4B1A601000C5
:1014D0008B689843FBD1494B8021E3185A42534112
:1014E0004A4A5B0049009952062000F003FA310095
:1014F000C00000F081FBC30932D140220121904697
:101500006162A362256BEB0736D427008026E36A6D
:1015100000232C3776013E4333600620256300F01C
:10152000E9F94146800000F067FB236B050098460F
:10153000DB073BD46022E36A5A406E2313403360DA
:1015400043462363802310229B013B431A60304BA8
:1015500023630323A3642800C0BCB946B046F8BD8A
:101560002C4A93423FD900232B492C4A6162A36243
:10157000256B9046EB07C8D52200C02330329B0173
:101580001343234A06201A60666AA26AB601B61897
:1015900000F0B0F9224900F02FFBB6020100300044
:1015A00000F02AFB0021FFF7A7FCAEE72200C023D2
:1015B00030329B011343164A06201A60636AA26AFE
:1015C0009B019946914400F095F94B4614499B02C2
:1015D000994600F011FB0100484600F00DFB002188
:1015E000FFF78AFCA6E77F22990188461040013068
:1015F000400819008044030082E7C0460080FCBF19
:1016000000C0004000E0004000F000404C1000200E
:1016100001030000FEFF0000FFFF0000C0FF3F00CD
:101620004E0E000030B50C2083B000F0B9F9FEF783
:1016300013FF00280ED0994B994A1A605A609A609D
:10164000DA601A615A619A61DA611A62954A5A62DD
:1016500003B030BD944CA06700F0AAF90122934B6F
:101660001A60636C012BFCD10322914B1A608E4AE5
:10167000936B012BFCD1013301218E4A8E480093DC
:10168000043300F03DF905238C4A009301218C4876
:1016900000F036F98B4B5A68FF2A02D8802252009C
:1016A0005A6080227D4C824B21691201854D1A605F
:1016B000002907D0606900F09FFA431C5800C01849
:1016C0000338FDD2E0217F4B02201A6811408022AE
:1016D00052012A43116019684840032101401160FA
:1016E00004219A681142FCD08022802192012A4371
:1016F00009011160802252005A60734B2361734BC1
:101700005968FF2900D85A600321684A6F4B11605D
:1017100002399A681142FCD0E0201A6810408022F9
:1017200052011A431060186848400321014002200A
:10173000116066498A681042FCD0802292011343EE
:10174000802212011A608022614B52004A6063615C
:10175000604B5968FF2900D85A6080225E4BE169CE
:1017600012015C4D1A60002907D0606900F044FA4C
:10177000431C5800C0180338FDD2E02255490B68BD
:101780001A4080235B012B431A60802380229B0137
:101790002B4312011A608022414B52004A60E361E0
:1017A0004E4B5968FF2900D85A6080224C4B216A61
:1017B00012014A4D1A60002907D0606900F01CFA36
:1017C000431C5800C0180338FDD2E02243490B687F
:1017D0001A4080235B012B431A60802380229B01E7
:1017E0002B4312011A60802380225B004B602C4B3C
:1017F000D20223623B4B5968914200D25A60802248
:10180000394B616A1201374D1A60002907D06069AF
:1018100000F0F2F9431C5800C0180338FDD2E02252
:1018200030490B681A4080235B012B431A608023E8
:1018300080229B012B4312011A608023DB024B6044
:10184000184B6362294B5A68FF2A02D88022520043
:101850005A608022264BA1691201244D1A6000298A
:1018600007D0606900F0C8F9431C5800C01803385D
:10187000FDD2E0221D490B681A4080235B012B43F7
:101880001A60802380229B012B4312011A6080235F
:101890005B004B600E4BA361DAE6C046AC0F002044
:1018A000006CDC021BB70000008000403CB0004030
:1018B00030B00040002F685900800240008C8647FD
:1018C00000C0024030800040001BB7003C80004058
:1018D000405973075480004054B00040608000407D
:1018E00060B000406C8000406CB000404880004018
:1018F00048B00040014B8000C0587047AC0F00203A
:10190000F8B5040021481D0017000E0000F074F91E
:101910000100380000F070F9069B29041B031943ED
:101920002368002B20DB1A4B1A4DE21853425A4110
:1019300080235B019C461203174B62441A60174BCD
:101940001A601700AB689F43FBD1C022231D920190
:101950001A4321232660A06013602368002BFCDA61
:101960000823E1601360F8BD3F2322681340B342AF
:10197000D9D1A3681B051B0D8342D4D1EE22E368A5
:10198000D20213408B42CED1EDE7C046001BB70018
:101990000040FDBF00C0004000E0004000F00040FB
:1019A0008023024A9B000343D362704700800540B6
:1019B000AA23064A1B0113602F230549D360054B58
:1019C00019605368002BFCDA7047C04600400240A3
:1019D00000B0FA00006002402C4B2D4A70B51A602E
:1019E0002C4A2D4B2D491A6014008B689C43FBD167
:1019F0002B4D2C4EB54208D2013E761BB60808CDC1
:101A0000984723000134B342F9D1FFF70BFE264A71
:101A1000214B1A60214A9368DB43DB01DD09002B6F
:101A2000F9D14022214B224C224E9A675A671A67FD
:101A3000DA66B44208D223682000002B20D0083494
:101A4000FEF7ECFEB442F6D31B4E1C4CC022A1683C
:101A5000300000F0C3F9A660FEF728FDFEF7B6FEE1
:101A6000FFF77AF8164C174EB44208D2013E361BE7
:101A7000B60808CC98472B0001359E42F9D170BDBD
:101A80000834FEF7BDFEB442D5D3DDE700E00040E8
:101A9000BFCDFBFEFE7F3C0000F0004000C00040D8
:101AA000980A0020A80A0020FFFFFF0100F0014073
:101AB000900A0020980A00200000002000ED00E0BD
:101AC000A80A0020AC0A002000BEFDE7094A030076
:101AD0001068002805D00849C3188B4207D8136046
:101AE000704706480449C31810608B42F7D901209B
:101AF0004042F5E71C100020000004205810002090
:101B000010B5FFF7E1FFC0460FB400B5084883B039
:101B100000F096FA049B002B07D005A9180001914C
:101B200000F018F8034800F08BFA0120FFF7CCFF13
:101B30005C5A00106C5A001010B50148FFF7E4FF22
:101B4000705A001010B5002800D110BD00F02CFA1A
:101B5000FBE7C04610B5094A0300146884B0002CA6
:101B600008D0012200910648524203A9A047012053
:101B700004B010BD00F064FA0020F9E72010002046
:101B8000451B001001480421014B1847100200209A
:101B9000B51B0010142310B50100188804331B88EE
:101BA000984710BD162310B50100188802331B8812
:101BB000984710BDF8B54746CE4680B50F1E19D0E0
:101BC00014239946043304000025012698464B4609
:101BD0001888434621681B88984701C4431E9841D2
:101BE000013540420640AF42F1D13000C0BCB94699
:101BF000B046F8BD0126F8E7114A936F9B0813D24F
:101C000010665166002905D0FFE7FFE7FFE7516F37
:101C1000106F704704B5002801D00020C04303F0C6
:101C2000EFFE002104BDC046F0B5146E556E576F2F
:101C3000166FFFF7E5FF1466556657671667F0BD28
:101C4000000000D0132370B51D78012D15D010DDD4
:101C50001C48FFF7A7FF1C4C01008022200000F069
:101C6000BDF8022D06D01948FFF794FF184B1860F5
:101C700070BD154C174BA364F5E7164B124C23604F
:101C80006360A360E36023616361A361E361236236
:101C90006362A362E36223636363A363E363236416
:101CA0006364A364E36423656365A365E3652366F6
:101CB0006366A366E36623676367A367E367A3645A
:101CC000D1E7C04653440000000C00204C33000014
:101CD00034100020D91C001007B5604601880A0A9C
:101CE0000230DF2AFAD1C9B2820804D302884088C0
:101CF0000004104300E00068014A5050039007BD03
:101D0000000C0020132310B512481C78FFF74AFF7F
:101D10000100012C0AD003DD80220F4800F05EF89C
:101D20000E48FFF737FF0E4B186010BD0A4C5422C7
:101D3000200000F053F80B4B6365A365E365236651
:101D40006366A366E36623676367A367E36723624B
:101D5000E361E5E753460000000D00204C3300002E
:101D600034100020691D001007B5604601880A0A7A
:101D70000230DF2AFAD1C9B2820804D3028840882F
:101D80000004104300E00068014A5050039007BD72
:101D9000000D002010B5040003F0E4F9002804D081
:101DA000034B04199C4200D810BD0248FFF7ACFE5B
:101DB000000004207C5A001010B503F0DDF910BDBE
:101DC00001480421014B184720020020B51B0010D8
:101DD000014B1B681847000020020020014B5B6884
:101DE0001847000020020020030010B50800110071
:101DF0001B68984710BDC046F0B546464F46D646CC
:101E0000C0B5437D80460E001700002B46D0002A47
:101E10003FDD4B1E9946244B0125002400209A46A5
:101E20000DE04B461B5D0D3B5A425341325DDBB228
:101E30000A2A0BD02B00013401359F421ADD002CF9
:101E4000EFD14346325D1B7D0A2AF3D1002BF1D13D
:101E5000A04204DA4346211A1B68301898474346CB
:101E600050461B6802219847013428002B00013599
:101E70009F42E4DC874204DD4346391A1B68301870
:101E80009847F619013E33780D3B5A42534142467A
:101E90001375E0BCBA46B146A846F0BD0368110010
:101EA00030009847F5E7C046EC5A0010F0B5DE4622
:101EB00057464E464546E0B585B017001C00060063
:101EC0000D00FFF70FF80023304A12184B41002B8A
:101ED00058DB2F4908008A4603F09AFD01906B1CDD
:101EE00003D1300003F022FC0500002C25D1294B42
:101EF0009846294B1C68002C15D0002F20D1274F65
:101F000002E02469002C0ED02368002BF9D03B6836
:101F1000002B01D0A342F4D120002A003100C04799
:101F20002469002CF0D1019B002B27D105B0F0BC17
:101F3000BB46B246A946A046F0BD194B9846D8E725
:101F4000164B994602ABDF1D0A239B4602E024692B
:101F5000002CE8D02368002BF9D04B461B68002BDF
:101F600001D0A342F3D12A0031002000C0475B46D4
:101F70000122390020003B70C047E8E7504603F0DB
:101F800037FDD3E70122074B5242A2E740420F0040
:101F9000900A0020F91D00101410002018100020D5
:101FA000E91D0010FFFFFF7FF0B5CE46474680B524
:101FB00083B06B460600DD1D2870FEF793FF0023FB
:101FC0001A4A12184B41002B2BDB1949080088468E
:101FD00003F01EFD174B81461C68002C14D0164FD1
:101FE00002E02469002C0FD02368002BF9D03B6855
:101FF000002B01D0A342F4D1200001222900FFF7D9
:10200000FBFE2469002CEFD14B46002B05D130009C
:1020100003B0C0BCB946B046F0BD404603F0E8FC92
:10202000F5E70122054B5242CFE7C04640420F0080
:10203000900A00201410002018100020FFFFFF7FDE
:1020400070B5040003F072FB0023010005000122BB
:102050002000FFF72BFF084B1C68002C06D063689C
:10206000002B05D098472469002CF8D1280070BDBA
:102070002469002CF3D1F9E7141000200A4A1368F0
:10208000002B05D10CE01A001B691032002B07D081
:102090009842F8D1002902D10369136001617047A9
:1020A0000029FCD01060FAE71410002010B500F0F1
:1020B000C5F8012010BDC046F0B50D1E15DD0E4B54
:1020C0000D271A680D4B4519D31859424B410C493D
:1020D0005B005E5E20210478A64207D09369194216
:1020E000FCD101301460A842F5D1F0BD93691942CA
:1020F000FCD11760F2E7C046501000200080FCBF02
:102100004C10002030B504000D1E26DD00201021EB
:102110001B4B013C1A689369194219D1013093692C
:102120001942FCD1136823548542F4D1154B1B6826
:10213000002B0CD050239363516B183B34320B406F
:102140001100802252010A431360002815D030BDCF
:102150000C4B1B68002BEDD1F7E70A4B1B68002BDB
:102160000BD050223821064B1B689A635A6B3433CC
:102170001140802252011343196003204042E6E7D8
:1021800050100020A40F0020064B10B51B68002B38
:1021900006D00021044A12689163044A10689847E7
:1021A00010BDC046A40F002050100020A80F002032
:1021B0001D4BF0B51A68C64698461C4B0E00D31846
:1021C00059424B411A4F14331C00050000B53B68BF
:1021D000002807D0002B11D0164B3D601E6080BC3C
:1021E000B846F0BD002BF7D0906300212000FEF729
:1021F00077F920001049FEF7B7F9EDE720000E4906
:10220000FEF788F901212000FEF76AF943465022C3
:1022100038211B689A635A6B343311408022520173
:1022200013431960D8E7C046501000200080FCBF5F
:10223000A40F0020A80F0020892100100C4B10B51E
:102240001B780C4B0C4C1B780C4B0221002023609C
:10225000FEF7CCF802210120FEF7C8F8E121206842
:102260004902FFF71BF901210548FFF707FF10BDE1
:10227000845B0010885B0010501000200040034079
:102280003002002070B5104C14E001F09BFD236972
:10229000DD68281D01F052FEA369013BA36123689C
:1022A000013B236001F09AFD286B01F039FD280005
:1022B00001F036FD2368002BE7D1E369012BF9D942
:1022C00001F074FDF6E7C0461C0E0020F8B50400CE
:1022D0001A4D0E002F686868043001F02FFE631C51
:1022E00014D06B683C195C60A74209D8286A6968F9
:1022F000043101F00BFE6B6AA34200D96C62F8BD99
:10230000E8696968043101F001FEF8E7002EE8D0C1
:102310006A68EB68996893606A68D1606A689968CE
:1023200004324A606A6804329A602A006B68083294
:102330005A61AB680133AB60E1E7C0469C0E0020F8
:10234000F0B5DE46454657464E464349E0B50D6872
:102350006B1C9B460B60002B0CD10B6ACA690A628E
:10236000CB618B6A01338B620B6A1B68002B69D1CE
:10237000013B4B6200224B6A94469B4556D30B6A45
:102380001B68002B4FD000239A46344B99461C23E0
:102390004B44984636E0504614685861013C14603E
:1023A0009A6A002A0ED0DC69186A5568A060186A1B
:1023B00044601C001834A54249D050461468986205
:1023C000013C1460DC6ACA6A944200D9CC62484677
:1023D000A200121992008018076A4244BD689F60EB
:1023E000DD60BD686E60BE605A61C3690133C36160
:1023F0004B68DB6A9C4201D901239C460B6A1B682F
:10240000002B10D00B6ADB68DB685A68934520D339
:102410005A699868DC681E1D846060605068B0422C
:10242000B9D15460B7E701235B424B620B6B002BC1
:1024300001D001239C466046F0BCBB46B246A9468B
:10244000A046F0BD0B6ADB681B684B6292E75060E8
:10245000B3E74A62EAE7C0469C0E00201C0E00204B
:10246000F8B5CE4647469846930080B50700180059
:102470000D00994601F048FC061E00D1C2E068201C
:1024800001F042FC041E00D1C3E068220021FFF7E6
:102490009FFC484607230438266336189E43002DC8
:1024A0005FD034232A78E2542B78002B56D0352382
:1024B0006A78E2546B78002B50D03623AA78E25425
:1024C000AB78002B4AD03723EA78E254EB78002B24
:1024D00044D038232A79E2542B79002B3ED039237B
:1024E0006A79E2546B79002B38D03A23AA79E25406
:1024F000AB79002B32D03B23EA79E254EB79002B05
:102500002CD03C232A7AE2542B7A002B26D03D2370
:102510006A7AE2546B7A002B20D03E23AA7AE254E6
:10252000AB7A002B1AD03F23EA7AE254EB7A002BE5
:1025300014D040232A7BE2542B7B002B0ED0412366
:102540006A7BE2546B7B002B08D04223AA7BE254C7
:10255000AB7B002B02D04323EA7BE25443230022CF
:10256000E254089D042D5AD8231D1800E5629946AF
:1025700001F0BCFC2000183001F0B8FC05235D1B05
:102580004246390030002461A561646201F0FAFB23
:10259000099B2060002B00D01C6001F013FC394D1A
:1025A000394EAB690133AB617368002B40D0336F98
:1025B000002B36D0E26A736F01337367F36A93427C
:1025C00000D2F2624F4693009B189B00E9180A6AFA
:1025D0001C359068ED18E060CB6990680133A2600B
:1025E000476097606561CB6101F0F8FB336F0125AF
:1025F000002B09D07368DA6AE36A9A4204D201F0C8
:10260000D5FB01E001256D422800C0BCB946B046AB
:10261000F8BD0125300001F083FB6D42F4E704258D
:10262000A2E77368E26ADB6A9342C4D87460C2E7C7
:102630007460AB69012BBDD180232F0098461C37F5
:10264000A8443800143701F045FCB845F9D13423CB
:1026500098463700B0444046483701F03BFC38000C
:1026600001F038FC30005C3001F034FC281D01F032
:1026700031FC3000083001F02DFC43463362F76135
:1026800098E7C0461C0E00209C0E0020F8B5040000
:1026900001F098FB214D002C31D0261D300001F0B7
:1026A0004DFCA36A002B03D02000183001F046FC3B
:1026B0006B6F01336B676B68A34222D0184A936932
:1026C000013B93612B6A1B68002B15D02B6ADB68DA
:1026D0001B686B6201F082FB6B68A34205D0206B24
:1026E00001F01EFB200001F01BFB2B6F002B02D022
:1026F0006B68A3420ED0F8BD013B6B62EAE76C68E1
:10270000CBE7074F3100381D01F0F4FB3B68013384
:102710003B60DFE701F04AFBEDE7C0469C0E00207E
:102720001C0E002010B5040001F04CFB002C04D05E
:10273000E46A01F053FB200010BD014B5C68F7E731
:102740009C0E002010B5040001F052FB002C04D0B8
:10275000E46A01F051FB200010BD014B5C68F7E713
:102760009C0E0020F0B5C64604000D0000B50429FB
:1027700000D9042501F026FB002C2BD0E36A9D42F2
:102780001AD0254F1DD87E68361B72425641A26969
:10279000E562002A02DB05214D1BA5611F4D9A0051
:1027A0002900D3181C319B006269CB189A4214D0BF
:1027B000002E01D001F0FAFA01F010FB80BCB846FF
:1027C000F0BD7A68A24225D07A68D66AAE42B64198
:1027D0007642DCE7104B5C68D0E7231D1800984672
:1027E00001F0ACFBE26AFB6A9A4200D9FA62474602
:1027F00093009B189B00E9180A6A1C359068ED1835
:10280000E060CB6990680133A260476097606561C2
:10281000CB61CDE70026BAE79C0E00201C0E0020FD
:1028200070B5040001F0CEFA4B4D002C47D0261DA8
:10283000300001F083FBA36A002B03D02000183086
:1028400001F07CFB28003100083001F053FB6423C9
:10285000E25C012A01D10022E2546523E25C012AF4
:1028600001D10022E2546623E25C012A01D1002258
:10287000E25401F0B3FA2B6F002B03D16B68A34233
:102880000FD070BD01F09EFA2B6A1B68002B18D088
:102890002B6ADB681B686B6201F0A0FA6B68A342CD
:1028A000EFD12A6F002A11D12C4BA8689969884270
:1028B0000AD0AA6F002A0CD001232B63E1E76C68D1
:1028C000B5E7013B6B62E7E76A60DAE701F06EFAB1
:1028D000D7E72A63E96A8A00501880001818C0698F
:1028E000002825D14C1EA200101980001818C069BC
:1028F00000282ED18C1EA200101980001818C06963
:10290000002826D1CC1EA200101980001818C0691A
:1029100000281ED10C1FA200101980001818C069D1
:10292000002816D105398A00501880001818C0698F
:10293000521892009C182300206A243340682062B9
:10294000984203D0C3686B60E9629AE7A06A20628C
:10295000F8E72100ECE7C0469C0E00201C0E00208A
:10296000F8B51E4D04006B6883420AD0002808D0D9
:1029700001F028FA2B00626908339A4202D001F074
:102980002DFAF8BD2A00A36A5C329342F7D0002BDF
:10299000F5D1261D300001F0D1FAE16AEB6A9942C7
:1029A00000D9E9620E4B8A009C46521892009F188B
:1029B000386A8368A060E36083685E6063461C33A6
:1029C0009B1886606361FB690133FB616B68DB6A9E
:1029D0009942D4D901F0EAF9D1E7C0469C0E002013
:1029E0001C0E0020F0B5C64600B5040001F000FA48
:1029F000224E626933000833050000279A4206D050
:102A0000280001F0F9F9380080BCB846F0BD30006C
:102A1000A36A5C308342F3D0002BF1D1B36F002B5B
:102A200027D17368E26ADB6A9A4202D9012301372F
:102A30003363231D1800984601F080FAE16AF36AB7
:102A4000994200D9F1628A000D4B521892009E18EB
:102A50009C464346316A8868A160E06088684360AC
:102A60008B6063461C339B186361F3690133F36128
:102A7000C6E72100183101F03DFAC1E79C0E0020A5
:102A80001C0E0020F8B58020CE464746800080B559
:102A900001F03AF9051E5FD0682001F035F9041EF7
:102AA00060D068220021FFF793F907232563FD35E5
:102AB000FF359D43494B271D6363380001F016FA2B
:102AC0002000183001F012FA05230022A36128002B
:102AD00043492461646201F055F9424D2060EC677E
:102AE00001F070F9404EB3690133B3616B68002B9C
:102AF00043D02B6F002B39D0E26A6B6F01336B67C9
:102B0000EB6A934200D2EA6293009B189B00F11893
:102B10000A6A1C369068F618E060CB699068013349
:102B2000A260476097606661CB6101F057F92B6F37
:102B3000002B04D06B68DA6AE36A9A424BD300F048
:102B4000C5FF012808D172B601235B426B620023E6
:102B500028672B6001F09CF9244B1B68C0BCB94668
:102B6000B046F8BD280001F0DBF8F5E76B68E26AD3
:102B7000DB6A9342C1D86C60BFE76C60B369012B1C
:102B8000BAD11C23984664339946B044B1444046B8
:102B900001F0A0F914239C46E044C845F7D1203346
:102BA0009946A944484601F095F948239846A84417
:102BB000404601F08FF928005C3001F08BF9301DA0
:102BC00001F088F92800083001F084F94B462B62A7
:102BD0004346EB6190E701F0E9F8B0E749444C4522
:102BE000852200109C0E00201C0E002048020020B0
:102BF00010B572B60022024B1A6701F0D5F810BD6D
:102C00009C0E0020024A936F013393677047C046C1
:102C10009C0E0020F0B5D6464F464646C0B501F0A2
:102C2000D1F8464CA36F013BA367A36F002B6BD178
:102C3000434B9A469B69002B66D0E36D002B48D02E
:102C4000002399461C3398461B3B9C46D044A36EF8
:102C5000DB68D869196A9A6A81604860180056680A
:102C6000183086425FD04946996211680139116077
:102C70005A699868D9681F1D816048605068B842D9
:102C80004FD0116801391160E26AD96A914200D9C6
:102C9000E16250468A00521892008618306A424417
:102CA00085689860DD6085686F6087605A61F36948
:102CB0000133F3616368DB6A99422ED9634623636B
:102CC000E36D002BC3D1236A1B68002B2DD1013B80
:102CD00063621C4E3568002D13D0012707E0FFF713
:102CE0002FFB002800D02763013D002D08D0A36FE3
:102CF000002BF4D03368013D01333360002DF6D151
:102D00003560236B002B15D1002401F067F82000FB
:102D1000E0BCBA46B146A846F0BDE36D002B96D1A3
:102D2000D1E75160ADE751609DE7236ADB681B681E
:102D30006362CEE701F03AF80124E6E79C0E00203A
:102D40001C0E00201C0F0020F8B51D4EB36F013380
:102D5000B3670268356854180460AA4208D9A242D1
:102D600008D80025FFF756FF00281AD02800F8BD24
:102D7000A24201D8A542F4D2376870687D1B0430A6
:102D800001F0DCF8736864195C60A7420CD9F06943
:102D900071680125043101F0B9F8FFF73BFF002805
:102DA000E4D101F003F8E1E7306A716801250431EC
:102DB00001F0ACF8736A9C42D4D27462D2E7C04688
:102DC0009C0E002070B5041E16D0124DAB6F01335F
:102DD000AB672E686868A419043001F0AFF86B681F
:102DE0005C60A6420BD9E8696968043101F08EF88D
:102DF000FFF710FF002801D100F0D8FF70BD286A4E
:102E00006968043101F082F86B6A9C42F0D26C620E
:102E1000EEE7C0469C0E0020014B18687047C04684
:102E20009C0E0020014B18687047C0469C0E002085
:102E3000014B98697047C0461C0E0020002801D045
:102E400034307047014B5868FAE7C0469C0E0020AA
:102E5000084A10B5936F04000133936700F0B2FF86
:102E6000054B18680019186000F0B8FFFFF7D2FE94
:102E700010BDC0469C0E00201C0F0020064B10B554
:102E80009B6F002B02D1FFF75BFA10BD034A0020B5
:102E9000136801331360F8E79C0E00201C0F00201C
:102EA000264830B5836F002B02D00123036330BD69
:102EB0000363C16A224A8B005C18A4001419E469F8
:102EC000002C25D14D1EAB005C19A4001419E46937
:102ED000002C2BD18D1EAB005C19A4001419E469E1
:102EE000002C23D1CD1EAB005C19A4001419E46999
:102EF000002C1BD10D1FAB005C19A4001419E46950
:102F0000002C13D105398B005C18A4001419E46956
:102F10005B189B00D5182B002C6A243364682C6244
:102F20009C4205D0E3684360C162C0E72900EFE737
:102F3000AC6AE3682C624360C162B8E79C0E002073
:102F40001C0E002070B50D001A4C6168183100F09D
:102F5000DDFF26686068043000F0F0FF6B1C14D0C1
:102F60006368AD195D60AE4205D9E06961680431FE
:102F700000F0CCFF70BD206A6168043100F0C6FF2C
:102F8000636A9D42F6D26562F4E76268E368996815
:102F900093606268D1606268996804324A606268CE
:102FA00004329A602200636808325A61A3680133D0
:102FB000A360DFE79C0E0020802370B51500244C31
:102FC0001B0662680B439361436862689968D3612A
:102FD000626811626268996818324A6062681832E1
:102FE0009A606368986203680133036026686068CA
:102FF000043000F0A3FF6B1C14D06368AD195D6052
:10300000AE4205D9E0696168043100F07FFF70BD10
:10301000206A6168043100F079FF636A9D42F6D24C
:103020006562F4E76268E368996893606268D160FA
:103030006268996804324A60626804329A602200C9
:10304000636808325A61A3680133A360DFE7C046B2
:103050009C0E002070B5254C43680D0061689E6889
:10306000CB6161680E6261689E6818317160616849
:103070001831996063689862036801330360002A1D
:1030800019D023686068043000F058FF6268E36874
:10309000996893606268D1606268996804324A6096
:1030A000626804329A602200636808325A61A36839
:1030B0000133A36070BD26686068AD19043000F06C
:1030C0003DFF63685D60AE4209D8206A61680431E3
:1030D00000F01CFF636A9D42ECD26562EAE7E0699A
:1030E0006168043100F012FFE4E7C0469C0E002046
:1030F000C368F0B5DB68D869196A9A6A816048606C
:10310000180054681830844247D000219962116831
:1031100001391160264A916F00292DD19868DC6829
:1031200059698460DC681F1D60604868B84236D009
:10313000086801380860D06AD96A81422BD81D48D6
:103140008C0084466418A4000619356AA8689D603E
:10315000D860A868476060461C300019AF605861AD
:10316000F3690133F36153680020DB6A8B4202D2BA
:10317000012301301363F0BD116E8C68D9611C62AC
:103180008C686060886011005C319962D16D01319A
:10319000D165D96AE7E7D162D1E75160B5E7086840
:1031A0004C6001380860D06AD96A8142C7D9F2E719
:1031B0009C0E00201C0E002080231B06F0B50B4344
:1031C0008468416802690360C3688C6084686160D8
:1031D0005168814232D0002101611168D8680139FB
:1031E000116099685A698860D8681F1D41605168EC
:1031F000B94225D01168134D01391160D86AEA6AC5
:10320000904200D9E862104A81009446091889006A
:103210005618346AA2689C60DA60A26857606246F9
:103220001C325218A7605A61F3690133F3616B686D
:10323000DB6A984201D901232B63F0BD5460CAE7D1
:103240005060D7E79C0E00201C0E002010B5040033
:1032500000F0B8FD034B9A6A1B682260636000F0BF
:10326000BDFD10BD9C0E0020024B9A6A1B680260D7
:10327000436070479C0E0020F8B50D00040000F07C
:10328000A1FD104A2B681168581C19D0966A27684E
:103290006068B74208D0884206D8002301242B601A
:1032A00000F09CFD2000F8BD0E1AB342F5D95B1A60
:1032B0001B182B60936A2360136863600024EFE798
:1032C0000024EDE79C0E00200122014B1A63704799
:1032D0009C0E0020042905D8002804D01031890054
:1032E00041184A607047014B5868F7E79C0E002070
:1032F000042909D8002804D01031890041184868F1
:103300007047024B5868F7E70020F9E79C0E002051
:10331000014B58687047C0469C0E0020044B0120AA
:103320001A6F002A03D0986F4342584140007047FB
:103330009C0E0020044B5A68596890695A6805230E
:10334000C96A5B1A936170479C0E0020F0B50400B7
:10335000C646250000B51700884600F033FD194E1B
:1033600016357368AA00D358002B06D10122736862
:103370001B1964331A70002F1DD100F02FFD00F0CF
:1033800021FD7368AD00EF58002F05D04346002B98
:103390000DD000227368EA50002370680019643071
:1033A000037000F01BFD380080BCB846F0BD7368A8
:1033B0007A1EEA50F0E701213800FEF787FF00F09F
:1033C000F5FCDAE79C0E0020F0B5C646040000B517
:1033D0001F008846160000F0F5FC214D68680019B2
:1033E00064300378022B0ED041466B68A2009B1814
:1033F0009A6D8A439A6501226B681B1964331A70AF
:10340000069B002B24D100F0E9FC00F0DBFC002F30
:1034100005D023006A6816339B009B583B606B689D
:1034200000271B1964331B78022B06D16B68A2009E
:103430009B189A6D0137B2439A6500236868041996
:103440006434237000F0CAFC380080BCB846F0BD7C
:1034500001211800FEF73AFF00F0A8FCD3E7C046B0
:103460009C0E0020F0B5C64600B5069D06000C0077
:1034700090461F0000F0A6FC002D04D02300163358
:103480009B009B592B600223311964310D780B701E
:10349000EDB2032F16D011D8012F46D0022F04D140
:1034A000A4003419A36D0133A365012D10D00124AC
:1034B00000F094FC200080BCB846F0BD042FF4D18D
:1034C000022D3BD043461634A400A351012DEED16A
:1034D0007369B168F268371D8A6051605968B942F2
:1034E0002ED01A68174D013A1A60F16AEB6A9942B8
:1034F00000D9E962144B8A009C46521892009C182D
:10350000206A8368B060F36083685F6063461C3341
:103510009B1887607361E3690133E3616B68DB6A61
:103520009942C4D900F042FCC1E74746A4003419CF
:10353000A26D1743A765012DB9D1C9E70024B7E7EC
:103540005A60CEE79C0E00201C0E0020F8B54746BE
:10355000CE4680B5089F06000C0090461D0000F086
:1035600047FC002F04D0230016339B009B593B607F
:103570000222331964331F781A70FFB2032D17D05B
:1035800012D8012D3BD0022D04D1A4003419A36D13
:103590000133A365012F11D0012400F02DFC200080
:1035A000C0BCB946B046F8BD042DF3D1022F59D0A6
:1035B00043461634A400A351012FEDD12B4B9A6F33
:1035C000002A25D01A6E9168F26131623100946848
:1035D0001831616091601A005C32B262DA6D0132BA
:1035E000DA65F26A5968C96A9142D5D2099A002A05
:1035F00002D0110001220A6001221A63CCE743467F
:10360000A4003419A26D1A43A265012FC4D1D5E7D5
:10361000B468F1687269A1604C60341DA0465468BA
:10362000444521D0116801391160D96AF26A8A4291
:1036300000D9DA620E4994008C46A418A10089468C
:10364000674644464F443D6AA968B560F160A96881
:103650004C6061461C314944AC607161F9690131CB
:10366000F961BFE7002498E75160DBE79C0E00207A
:103670001C0E0020F0B5D64646464F460C0005000D
:10368000C0B5160000F0B4FB02212B196433A4006E
:103690001A782C191970A36D0133A365012A06D07D
:1036A00000F0AAFBE0BCBA46B146A846F0BD274BE5
:1036B0009A6F002A1AD01A6E9168EA61296229006D
:1036C00094681831616091601A005C32AA62DA6D08
:1036D0000132DA65EA6A5968C96A9142E0D2002E7D
:1036E00001D00122326001221A63D9E7AC68E9688F
:1036F0006A69A1604C602C1DA4465468644522D0C0
:10370000116801391160D96AEA6A8A4200D9DA621D
:103710000F4994008946A418A1008A464946644688
:1037200051440F6A8846B968AF60E960B9684C6077
:1037300049461C315144BC60696141464446C969EF
:103740000131E161C7E75160DAE7C0469C0E002015
:103750001C0E002070B504000D0000280DD0641967
:10376000643400F02FFB23780025022B01D1257053
:10377000013500F033FB280070BD014B5C68EEE7BB
:103780009C0E002070B504000D00160000280BD020
:1037900000F018FBA8002018846D836DB343836587
:1037A00000F01CFB200070BD014B5C68F0E7C046D8
:1037B0009C0E0020F0B54546DE4657464E46E0B525
:1037C000C04D87B02B681C68002C00D1D6E0DB68A8
:1037D0001C68FFF717FAFFF71FFB6B6881469842DA
:1037E00000D2DAE06860844200D82EE100224B4625
:1037F000E868E11A01F04EFCFFF70CFA002800D14E
:1038000015E124239A460022E86803A900F092FEFD
:103810000028D7D0039B0193002BF4DB059B98462F
:103820005B69002B03D04346181D00F087FBFFF7B0
:10383000F3FA6B68834698420FD35B466B60039B39
:10384000092BE0D8A04A9B00D3589F4601229343FE
:103850005246A3542000236A98472B681A68002A0E
:1038600000D1E0E0DB68DC681E68231D1800994683
:1038700000F064FB53460422E35C1A42E6D0A369DD
:103880002461F718F6436760B3420AD83E00F64356
:10389000236A20009847A3692461FF186760B34238
:1038A000F4D94946A86800F031FBD3E743465246B5
:1038B000985C01234246514644460343535492695F
:1038C000049924618B1863605B4500D9B2E05C46C3
:1038D000611A8A4200D9EFE0410714D4012352460D
:1038E000984343469854434640461B6A98478AE7A4
:1038F0005946CB1A934200D2D8E04046036A984713
:1039000043469A69230041469C184C600961A345CF
:10391000EED29B4501D2A342EFD943462868191D38
:1039200000F0F4FADFE7434652469B5C0122514621
:1039300093434246535466E7524643469B5C0122FA
:103940005146134342465354049B414693615A46A1
:103950009A184A6009615A4571D8002B00D152E784
:10396000A868043100F0D2FA4DE7434652469B5C0A
:103970009A07DBD4404600F0D3F944E7FFF742F959
:10398000FFF74AFA6B688146984206D34B466B6054
:10399000AB681A6853425A4129E72B681A68002A13
:1039A00039D024229246203A93460AE001229343DA
:1039B0005246A354236A200098472B681A68002AAD
:1039C00029D0DB68DC681E68231D1800984600F0CB
:1039D000B5FA53465A46E35C1A42E7D0A36924611C
:1039E000F718F6436760B3420AD83E00F643236AED
:1039F00020009847A3692461FF186760B342F4D997
:103A00004146A86800F082FA236A200098472B6894
:103A10001A68002AD5D1AA68AB604B462A606B6051
:103A2000FFF7F8F8EDE6AA68AB602A6005E700F05A
:103A3000BDF9E6E6594502D9994200D84CE741461E
:103A40002868043100F062FADDE6FFF7E3F82B683E
:103A5000DB68DE68331D1800984600F06FFA2422F8
:103A6000B35C59070ED401218B43B3543000336A41
:103A70009847C6E64A46141BA34212D83000336A60
:103A800098473C00B3693661E7187760B945F1D2D1
:103A9000A14501D2BC42F1D94146286800F036FA6E
:103AA000E4E74146A86800F031FADFE74346A8683A
:103AB000191D00F02BFA16E74146A868043100F002
:103AC00025FAA0E6200F0020305B001070B582B010
:103AD00000F078F9164CE368002B11D000F07EF965
:103AE000E3680020002B09D00323383400938022A0
:103AF0000023104910480194FEF7B2FC02B070BDDB
:103B00002600250010363000243500F0E3F92800A7
:103B100000F0E0F900220C210A202660A56000F0E8
:103B20006FFAE0600028D9D0044901F0B1F9D5E777
:103B3000200F0020605B0010B5370010585B0010AC
:103B4000F8B54546DE4657464E46E0B50700282004
:103B5000884616001D0000F0D7F8041E1BD0242351
:103B60000022C25400F02EF91D4B9946DB68002B51
:103B700018D000F033F94346A3610A9B2760E56142
:103B80002362201D00F0B2F9002E04D0242204216B
:103B9000A35C0B43A3542000F0BCBB46B246A9462D
:103BA000A046F8BD10334B4418009B4600F092F934
:103BB00024234B4418009A4600F08CF94B465A4691
:103BC0001A6052460C219A600A20002200F018FA6E
:103BD0004B46D8600028CCD0024901F059F9C8E71B
:103BE000200F0020585B001010B50F4C84B0E36824
:103BF000002B04D0019102920390052902DD0020E0
:103C000004B010BDFFF78AFB022806D00023002273
:103C1000E06801A900F040FAF2E70023E068069AA4
:103C200001A900F039FAEBE7200F002030B51C00A5
:103C3000094B85B0DD68002D04D0019102920390FC
:103C4000052902DC002005B030BD00232200280039
:103C500001A900F0ADFBF6E7200F0020014B986BA7
:103C60007047C046200F00208069704770B504007F
:103C70000D0000F0A7F824230422E35C002D05D0FA
:103C800013432422A35400F0A9F870BD9343F8E72E
:103C900010B5040000F096F82423E45C00F09EF8D0
:103CA0006407E40F200010BD10B5040000F08AF88E
:103CB0002423E45C00F092F86407E40F200010BDB8
:103CC000406870470068704710B5040000F07AF84B
:103CD0002423E35C01241C4000F080F8200010BD88
:103CE00010B5040000F06EF8E46900F077F82000E9
:103CF00010BDC04670B50D00040000F063F8E5612A
:103D000000F06CF870BDC04610B50400FEF77AFFF5
:103D10002000FEF73FF80400FEF77CFF200010BDF6
:103D200010B5041E06D0FEF76DFF2000FEF744F824
:103D3000FEF770FF10BDC04600000000000000004C
:103D4000002382B0019372B6019B002BFCD002B01D
:103D50007047C0460A4A13681868203080F3098803
:103D6000022080F31488BFF36F8F3FBCAE4608BCBF
:103D700004BC62B61847C046C046C046C046C046EE
:103D8000A00E002010B58024031F64041C60043BB7
:103D900019600349043B1960143B40381A6010BD98
:103DA000413D00107047C0467047C0468022044B1A
:103DB00052051A60BFF34F8FBFF36F8F7047C04635
:103DC00004ED00E072B6044A136801331360BFF3D8
:103DD0004F8FBFF36F8F70474C020020034A136868
:103DE000013B1360002B00D162B670474C020020EB
:103DF000EFF3108072B6704780F310887047C046AA
:103E0000EFF309800E4B1A6820381060F0C044466A
:103E10004D4656465F46F0C008B572B6FFF740F80B
:103E200062B60CBC116808681030F0C8A046A946FC
:103E3000B246BB4680F309882038F0C81847C04610
:103E4000A00E002010B5FFF7D3FF0400FFF716F80F
:103E5000002803D08022034B52051A602000FFF790
:103E6000CBFF10BD04ED00E00022054B05491A60B0
:103E70000A60054A0549116007221A607047C0466A
:103E800010E000E018E000E014E000E04F4B140008
:103E9000FF220E4B1204196810B50A431A60FF2264
:103EA0000024196812060A4382B01A60FFF7DCFF8B
:103EB000074B1C60FFF74EFFFEF7F2FF019472B64E
:103EC000019B002BFCD0002002B010BD20ED00E0D3
:103ED0004C0200200300083301224360C3600361E9
:103EE00000235242826003607047C0460023036192
:103EF0007047C04643689A684B608A609A68516010
:103F0000996003680861013303607047030030B5AE
:103F10000C680833621C0DD01A005B681D68A5424E
:103F2000FAD94B60996003688A6001335160086177
:103F3000036030BD02695368F3E7C0460369416816
:103F400082688A6051605968814206D0002202610D
:103F50001A68013A1A60186870475A60F6E7C04656
:103F600070B504000D00002832D0C36B0020002B78
:103F700020D0216C180C0A0C1DD100282AD1FFF783
:103F800021FF216CE36B22684B43D0185B1AD318D6
:103F9000A0606260E3604422FF230020A063A3547A
:103FA0000132A354002D18D12369002B1ED1FFF735
:103FB00015FF012070BD00280AD1181C89B29BB2E0
:103FC0004B4380B292B242431B0CD3181B0CD6D089
:103FD0000020EFE7021C081CF0E720001030FFF77C
:103FE00079FF20002430FFF775FFE0E72000103054
:103FF000FFF77EF80028DAD0FFF7D8FED7E7C046F3
:1040000070B505000E00002843D00B0C020C002BED
:1040100031D1331C002A32D13000684303004933C8
:1040200037D84830FFF770FE041E32D00300002E50
:1040300000D048332360E5632664FFF7C3FE216C9C
:10404000E36B22684B43D018A06000205B1AD318A2
:104050006260E3604422FF23A0632000A354013286
:10406000A3541030FFF736FF20002430FFF732FF53
:10407000FFF7B4FE0EE0002A0BD11A1C031CB0B2ED
:10408000A9B2414398B293B24343090C5B181B0C8D
:10409000C2D00024200070BDF0B5CE4647460400D3
:1040A000060080B585B0994601928846FFF78AFEE2
:1040B000A36BE26B0025243693427CD34B46022B44
:1040C00000D1E1E0019B002B00D1F9E0002D00D1EF
:1040D000D6E0FFF783FEFEF795FDFFF773FE44225F
:1040E000A35C5BB2013301D10023A3544522A35C3E
:1040F0005BB2013301D10023A354FFF76FFE01A986
:1041000002A8FFF7B9F8002800D0DDE0FFF75AFE5B
:10411000A36BE26B934261D0FFF760FEFFF752FEA4
:104120004523E55C6DB2002D05DC13E0013DEBB2EB
:104130006DB2002B0ED0636A002B0BD03000FEF75F
:10414000D7FF0028F2D0013DFFF7BEF8EBB26DB209
:10415000002BF0D14523FF22E254FFF73FFEFFF78B
:1041600031FE44232700E55C10376DB2002D05DCDD
:1041700013E0013DEBB26DB2002B0ED02369002B92
:104180000BD03800FEF7B4FF0028F2D0013DFFF756
:104190009BF8EBB26DB2002BF0D14423FF22E25426
:1041A000FFF71CFEFEF736FD0125FFF70BFEA36BA4
:1041B000E26B934282D2226CA56B002A00D0CDE044
:1041C0000135A563636A002B00D0DBE0FFF706FE34
:1041D000012005B0C0BCB946B046F0BD270010377D
:1041E000FFF7FCFD38000199FEF7ACFEFFF7EAFD92
:1041F0004523E55C6DB2002D05DC13E0013DEAB21C
:104200006DB2002A0ED0636A002B0BD03000FEF78F
:104210006FFF0028F2D0013DFFF756F8EAB26DB209
:10422000002AF0D14523FF22E254FFF7D7FDFFF724
:10423000C9FD4423E55C6DB2002D05DC13E0013DB2
:10424000EAB26DB2002A0ED02369002B0BD03800E1
:10425000FEF74EFF0028F2D0013DFFF735F8EAB235
:104260006DB2002AF0D14423FF22E254FFF7B6FDDD
:10427000FEF7D0FC002897D1FFF798FD012594E7C1
:1042800002A8FEF7F1FF24E7226CA56B002A97D065
:104290004146E068FDF7A2FDE168236C5A42CB1A63
:1042A0002168E3608B4207D2A3689C466244E260C7
:1042B0004B46022B00D083E7002D00D081E77FE73B
:1042C000FFF78CFD002084E7FFF77CFD45232600E7
:1042D000E55C24366DB2002D05DC13E0013DEAB249
:1042E0006DB2002A0ED0636A002B0BD03000FEF7AF
:1042F000FFFE0028F2D0013DFEF7E6FFEAB26DB204
:10430000002AF0D14523FF22E254FFF767FDFFF7B3
:1043100059FD44232600E55C10366DB2002D05DC06
:1043200013E0013DEAB26DB2002A0ED02369002BE2
:104330000BD03000FEF7DCFE0028F2D0013DFEF786
:10434000C3FFEAB26DB2002AF0D14423FF22E25447
:10435000FFF744FDFEF75EFC00203AE74B4641467E
:10436000002B19D16068FDF739FD226C6368944613
:10437000A26863446360934200D221E72368013559
:1043800063601EE720002430FEF7B2FE002800D153
:104390001CE7FFF70BFD19E7E068FDF71FFDE1687B
:1043A000236C5A42CB1A2168E3608B4280D27BE7B0
:1043B000F0B54F46D6464646C0B5040099460F00B4
:1043C0009046FFF715FDE36B0500A06B984237D3CD
:1043D0004B46022B09D000242800FFF70DFD2000DA
:1043E000E0BCBA46B146A846F0BD4523226CE65C67
:1043F000A36BA36B76B29A46002A2AD03900E068F4
:10440000FDF7ECFCE168236C5A42CB1A2168E360AB
:104410008B4249D2A3689C466244E2604B46022B21
:1044200042D053460133A363731C16D0FEF700FD40
:10443000864215D24523013676B2E6540124CBE7F5
:104440004523226CE65CA36BA36B76B29A46002AE6
:1044500008D10133A363731CE8D1636A002B15D123
:104460000124B9E74B463900002B21D16068FDF7E4
:10447000B5FC226C63689446A2686344636093420F
:10448000CFD32368636053460133E3E72000243031
:10449000FEF72EFE0028E3D04346002BE0D0012398
:1044A00042460124136097E75346002BD2D1D0E750
:1044B000E068FDF793FCE168236C5A42CB1A21684F
:1044C000E3608B42AAD2A5E7F0B5C646040000B56A
:1044D0000E00FFF78DFCA36BE26B050000279A42EC
:1044E0000BD94522A75C01337FB29046A3637B1CA6
:1044F0000AD1636A002B11D101272800FFF77CFC49
:10450000380080BCB846F0BDFEF792FC8742F3D27B
:10451000434601377FB2E7540127EEE720002430FD
:10452000FEF7E6FD0028E7D0002EE5D001230127A5
:104530003360E2E7F0B5CE464746040080B585B06B
:1045400088460192FFF73EFCA56B002D00D01FE1CD
:10455000019B002B00D1CBE0260002A8FEF784FED1
:1045600044272436FFF73AFCFEF74CFBFFF72AFC02
:10457000E35D5BB2013301D10023E3554522A35C27
:104580005BB2013301D10023A354FFF727FC01A93B
:1045900002A8FEF771FE002855D1FFF713FCA36BAC
:1045A000002B00D0ACE0FFF719FC30000199FEF7BA
:1045B000C9FCFFF707FC4523E55C6DB2002D05DC67
:1045C00013E0013DEAB26DB2002A0ED0636A002BFF
:1045D0000BD03000FEF78CFD0028F2D0013DFEF735
:1045E00073FEEAB26DB2002AF0D14523FF22E254F5
:1045F000FFF7F4FBFFF7E6FB10239946E55DA144C6
:104600006DB2002D05DC13E0013DEAB26DB2002A67
:104610000ED02369002B0BD04846FEF769FD002819
:10462000F2D0013DFEF750FEEAB26DB2002AF0D1A1
:10463000FF23E355FFF7D2FBFEF7ECFA00284ED13B
:10464000FFF7B4FB4BE0FFF7BDFB4523E55C6DB224
:10465000002D05DC13E0013DEAB26DB2002A0ED058
:10466000636A002B0BD03000FEF742FD0028F2D029
:10467000013DFEF729FEEAB26DB2002AF0D14523D2
:10468000FF22E254FFF7AAFBFFF79CFB1023994699
:10469000E55DA1446DB2002D05DC13E0013DEAB2F9
:1046A0006DB2002A0ED02369002B0BD04846FEF7CE
:1046B0001FFD0028F2D0013DFEF706FEEAB26DB202
:1046C000002AF0D1FF23E355FFF788FBFEF7A2FA9B
:1046D000FFF778FBA36B002B0AD0FFF77FFBFFF7F8
:1046E00071FBA56B002D53D1019B002B00D039E746
:1046F000FFF774FB002005B0C0BCB946B046F0BD62
:10470000FFF76CFBFFF75EFB4523E55C6DB2002D08
:1047100005DC13E0013DEAB26DB2002A0ED0636AF7
:10472000002B0BD03000FEF7E3FC0028F2D0013D57
:10473000FEF7CAFDEAB26DB2002AF0D14523FF228E
:10474000E254FFF74BFBFFF73DFB10239946E55D75
:10475000A1446DB2002D05DC13E0013DEAB26DB25B
:10476000002A0ED02369002B0BD04846FEF7C0FC70
:104770000028F2D0013DFEF7A7FDEAB26DB2002A93
:10478000F0D1FF23E355FFF729FBFEF743FAA6E735
:10479000226C002A08D0E3689918A368E160994266
:1047A0000BD24046FDF71AFB013DA5632369002BA0
:1047B00006D1FFF713FB01209DE72168E160F0E7D8
:1047C00020001030FEF794FC0028F2D0FFF7EEFA3C
:1047D000EFE7C046F0B5C646040000B584B00191CD
:1047E000FFF7F0FAA36B002B00D022E1019B002B16
:1047F00000D1CBE0260002A8FEF736FD4427243680
:10480000FFF7ECFAFEF7FEF9FFF7DCFAE35D5BB2C7
:10481000013301D10023E3554522A35C5BB2013390
:1048200001D10023A354FFF7D9FA01A902A8FEF78A
:1048300023FD002855D1FFF7C5FAA36B002B00D04C
:10484000ABE0FFF7CBFA30000199FEF77BFBFFF7F7
:10485000B9FA4523E55C6DB2002D05DC13E0013D9E
:10486000EAB26DB2002A0ED0636A002B0BD0300082
:10487000FEF73EFC0028F2D0013DFEF725FDEAB22E
:104880006DB2002AF0D14523FF22E254FFF7A6FAC9
:10489000FFF798FAE55D6DB2002D17DD10239846FD
:1048A000A04404E0013DEAB26DB2002A0ED02369B3
:1048B000002B0BD04046FEF71BFC0028F2D0013D38
:1048C000FEF702FDEAB26DB2002AF0D1FF23E355F4
:1048D000FFF784FAFEF79EF900284ED1FFF766FA3B
:1048E0004BE0FFF76FFA4523E55C6DB2002D05DC68
:1048F00013E0013DEAB26DB2002A0ED0636A002BCC
:104900000BD03000FEF7F4FB0028F2D0013DFEF79B
:10491000DBFCEAB26DB2002AF0D14523FF22E2545B
:10492000FFF75CFAFFF74EFAE55D6DB2002D17DD7B
:1049300010239846A04404E0013DEAB26DB2002A7B
:104940000ED02369002B0BD04046FEF7D1FB002888
:10495000F2D0013DFEF7B8FCEAB26DB2002AF0D108
:10496000FF23E355FFF73AFAFEF754F9FFF72AFA67
:10497000A36B002B0AD0FFF731FAFFF723FAA36BE2
:10498000002B56D1019B002B00D039E7FFF726FA08
:10499000002004B080BCB846F0BDFFF71FFAFFF757
:1049A00011FA4523E55C6DB2002D05DC13E0013DF5
:1049B000EAB26DB2002A0ED0636A002B0BD0300031
:1049C000FEF796FB0028F2D0013DFEF77DFCEAB22F
:1049D0006DB2002AF0D14523FF22E254FFF7FEF921
:1049E000FFF7F0F9E55D6DB2002D17DD1023984655
:1049F000A04404E0013DEAB26DB2002A0ED0236962
:104A0000002B0BD04046FEF773FB0028F2D0013D8F
:104A1000FEF75AFCEAB26DB2002AF0D1FF23E3554B
:104A2000FFF7DCF9FEF7F6F8FFF7CCF9A36B002BE4
:104A3000A8D0013BA3632369002B03D1FFF7CEF974
:104A40000120A6E720001030FEF752FB0028F5D029
:104A5000FFF7ACF9F2E7C046F0B5CE464746040092
:104A600080B585B088460192FFF7ACF9A36B002BA7
:104A700000D01FE1019B002B00D1CBE0260002A853
:104A8000FEF7F2FB44272436FFF7A8F9FEF7BAF841
:104A9000FFF798F9E35D5BB2013301D10023E355E1
:104AA0004522A35C5BB2013301D10023A354FFF77D
:104AB00095F901A902A8FEF7DFFB002855D1FFF701
:104AC00081F9A36B002B00D0ACE0FFF787F9300031
:104AD0000199FEF737FAFFF775F94523E55C6DB2EA
:104AE000002D05DC13E0013DEAB26DB2002A0ED0C4
:104AF000636A002B0BD03000FEF7FAFA0028F2D0E0
:104B0000013DFEF7E1FBEAB26DB2002AF0D1452388
:104B1000FF22E254FFF762F9FFF754F91023994698
:104B2000E55DA1446DB2002D05DC13E0013DEAB264
:104B30006DB2002A0ED02369002B0BD04846FEF739
:104B4000D7FA0028F2D0013DFEF7BEFBEAB26DB203
:104B5000002AF0D1FF23E355FFF740F9FEF75AF89A
:104B600000284ED1FFF722F94BE0FFF72BF9452340
:104B7000E55C6DB2002D05DC13E0013DEAB26DB2DB
:104B8000002A0ED0636A002B0BD03000FEF7B0FA7B
:104B90000028F2D0013DFEF797FBEAB26DB2002A81
:104BA000F0D14523FF22E254FFF718F9FFF70AF985
:104BB00010239946E55DA1446DB2002D05DC13E09C
:104BC000013DEAB26DB2002A0ED02369002B0BD052
:104BD0004846FEF78DFA0028F2D0013DFEF774FB3F
:104BE000EAB26DB2002AF0D1FF23E355FFF7F6F8E1
:104BF000FEF710F8FFF7E6F8A36B002B0AD0FFF7DB
:104C0000EDF8FFF7DFF8A36B002B53D1019B002BCE
:104C100000D039E7FFF7E2F8002005B0C0BCB94684
:104C2000B046F0BDFFF7DAF8FFF7CCF84523E55CB6
:104C30006DB2002D05DC13E0013DEAB26DB2002A31
:104C40000ED0636A002B0BD03000FEF751FA00281B
:104C5000F2D0013DFEF738FBEAB26DB2002AF0D186
:104C60004523FF22E254FFF7B9F8FFF7ABF8102312
:104C70009946E55DA1446DB2002D05DC13E0013DD0
:104C8000EAB26DB2002A0ED02369002B0BD0484641
:104C9000FEF72EFA0028F2D0013DFEF715FBEAB22E
:104CA0006DB2002AF0D1FF23E355FFF797F8FDF727
:104CB000B1FFA6E7226CE568002A07D0A368A9180F
:104CC000E16099420AD24046FDF788F8636AE560E0
:104CD000002B06D1FFF782F801209EE72168E160F2
:104CE000F1E720002430FEF703FA0028F2D0FFF7A6
:104CF0005DF8EFE7F8B5CE464746040080B5894633
:104D00009046FFF775F8A66B05000027002E07D127
:104D10002800FFF771F83800C0BCB946B046F8BDAE
:104D20004423226CE75C7FB2002A0AD0E36899181A
:104D3000A368E160994201D32168E1604846FDF72C
:104D40004DF8013EA6637B1C04D12369002B0BD1D7
:104D50000127DDE7FEF76CF88742F9D244230137DB
:104D60007FB2E7540127D3E720001030FEF7C0F9E7
:104D70000028EDD04346002BEAD00123424601270C
:104D80001360C5E7F8B504000F00FFF731F8A36B17
:104D900005000026002B04D12800FFF72DF8300075
:104DA000F8BD226CE668002A09D0A368B118E1605A
:104DB000994201D32168E1603800FDF70FF8E66001
:104DC0000126E9E710B50400FEF7FCFFA46BFFF72E
:104DD00005F8200010BDC04610B50400FEF7F2FF34
:104DE000A36BE46BE41AFEF7F9FF200010BDC04688
:104DF000806B70471E4B70B55A6890421DD0DA68C0
:104E0000904222D05A69904221D0DA69904220D053
:104E10005A6A90421FD0DA6A90421ED05A6B904272
:104E20001DD0DA6B90421CD05A6C90421BD0DA6CC9
:104E300090421AD0FEF774FF70BD002200240025B6
:104E4000D2009B181C605D60F4E70122F6E70222A5
:104E5000F4E70322F2E70422F0E70522EEE7062258
:104E6000ECE70722EAE70822E8E70922E6E7C0467E
:104E7000B00A0020006C7047C06B7047806B4342E3
:104E800058417047836BC06BC01A4342584170470A
:104E900070B500290FD000260023424CDA00A51877
:104EA0006D68854200D16FE0002E05D001330A2BDA
:104EB000F4D13160706070BDA558002D61D05D1CCB
:104EC000092BF8D0EA00A6187668B0425CD0A65844
:104ED000002E5DD09D1C082BEDD0EA00A618766848
:104EE000B04251D0A658002E52D0DD1C072BE2D084
:104EF000EA00A6187668864246D0A658002E47D00B
:104F00001D1D062BD7D0EA00A6187668B0423BD00C
:104F1000A658002E3CD05D1D052BCCD0EA00A6186B
:104F20007668B04230D0A658002E31D09A1D042B9E
:104F3000C1D0D50066197668B04224D06559002DDD
:104F400029D0DD1D032BB6D0EA00A6187668B04242
:104F50001AD0A658002E1BD00135022BABD0EA0088
:104F6000A6187668B0420FD0A658002E10D0012B9C
:104F7000A1D0E36C984212D0A36C002B9BD10923E3
:104F80004822A61892E7D200A6183160706092E716
:104F90002B00A6188AE71300D200A61886E748223D
:104FA000A618F2E7B00A00201B4A030051688842A5
:104FB0001CD0D16888421DD0516988421CD0D1696B
:104FC00088421BD0516A88421AD0D16A884219D0CF
:104FD000516B884218D0D16B884217D0516C8842EF
:104FE00016D0D16C0020994214D070470023DB000A
:104FF000D058FAE70123FAE70223F8E70323F6E79C
:105000000423F4E70523F2E70623F0E70723EEE79E
:105010000823ECE70923EAE7B00A00201C4B5A6892
:1050200090421BD0DA68904220D05A6990421FD03B
:10503000DA6990421ED05A6A90421DD0DA6A9042D4
:105040001CD05A6B90421BD0DA6B90421AD05A6C2B
:10505000904219D0DA6C824218D0704700220020AA
:105060000021D2009B1818605960F6E70122F6E78C
:105070000222F4E70322F2E70422F0E70522EEE73A
:105080000622ECE70722EAE70822E8E70922E6E73A
:10509000B00A002070B5050016000C00FEF792FE65
:1050A0004422AB5C5BB2013301D10023AB544522F7
:1050B000AB5C5BB2013301D10023AB54FEF78EFE33
:1050C000AB6B002B46D0FEF77DFE4523EC5C64B253
:1050D000002C16DD2E00243604E0013CE2B264B25E
:1050E000002A0ED06B6A002B0BD03000FEF700F8C0
:1050F0000028F2D0013CFEF7E7F8E2B264B2002AE1
:10510000F0D14523FF22EA54FEF768FEFEF75AFE6F
:105110004423EC5C64B2002C16DD2E00103604E053
:10512000013CE2B264B2002A0ED02B69002B0BD0F6
:105130003000FDF7DDFF0028F2D0013CFEF7C4F897
:10514000E2B264B2002AF0D14423FF22EA54FEF70F
:1051500045FE70BD2800320021002430FDF77AFFA3
:10516000B1E7C04610B5034B0100186800F00EF817
:1051700010BDC0465002002010B5034B0100186856
:1051800000F050FB10BDC04650020020F0B54E4666
:105190004546DE465746E0B50D000B35060083B0A8
:1051A000162D22D8102900D9B2E000F0A9FA102556
:1051B00018230220CC4FFB181A005C68083A94426E
:1051C00000D1B5E0032362689A431300E268A16846
:1051D000CA6091600122E318596830000A435A609E
:1051E00000F090FA2000083095E007239D4300D599
:1051F0008EE0A94200D98BE000F082FAFC235B002C
:105200009D4200D2A1E1680A00D18BE0042800D9B8
:1052100074E138239846A80980443930C100B24F60
:1052200079184C680839A1420ED003239C4604E04B
:10523000002ACBDAE468A14206D062466368934351
:105240005A1B0F2AF4DD40463A003C69083294426A
:1052500000D178E003236168994389460B00491B1C
:105260000F2900DD75E17A613A610029B2DA802206
:105270009200914500D310E15909DA0801238B40CF
:10528000D2007968D2190B4391687B60E260A1601B
:105290009460CC60012182109140994259D80B4210
:1052A00005D103229043490004300B42FBD0032375
:1052B0009846C3009946B944CC4682466346DC68AA
:1052C000A44507D126E1002A00DB2FE1E468A445CC
:1052D00000D11FE14246636893435A1B0F2AF2DD57
:1052E00001208046611905436560A068E5680837BC
:1052F000C560A86040461043F960B9604860CF605F
:1053000030008F60E25000F0FDF92000083002E02C
:105310000C230020336003B0F0BCBB46B246A94664
:10532000A046F0BD80213F2340209846890076E7C3
:10533000DC680230A34200D044E73A003C690832FE
:10534000944200D086E701217B6882109140994207
:10535000A5D90323BC6862689A439146954203D855
:10536000531B0F2B00DD8AE023004B445F4A01935F
:105370005F4B93469A4612681B68EB18013200D1C6
:1053800036E15C4A944663441B0B1B0300933000D8
:10539000009900F0B9F903008046013300D1F3E031
:1053A000019B834200D9EDE0524600985268030009
:1053B0009446514663444B6001991A00414500D11F
:1053C0004BE15B461B68013300D150E14346019934
:1053D0005B1A9A1853465A600723424641461A40C0
:1053E0000192194200D10DE108239846881A424BD8
:1053F0000099804441449B1A5B1A1B051B0D0091C8
:10540000300019009B4600F07FF9431C00D14AE1AF
:105410004346C01A03005B440093534652465B6800
:1054200001215B44536042464046BA60009A0A43F9
:105430004260BC4200D11EE14A460F2A00D81CE15E
:1054400007200C3A824360680140052011436160E7
:10545000A118486088600F2A00D92FE142464446CF
:1054600052685146C96A994201D25146CB625146AF
:10547000096B994200D389E051460B6386E0012213
:10548000290013431143651961603000BD606B60F2
:1054900000F038F9200008303DE75A0A042A6BD999
:1054A000142A00D9BEE011005C325B31D20008231F
:1054B0005B429C46BA18944463469A680323984614
:1054C000944500D197E0434651689943494502D934
:1054D00092689445F7D1D3689C467B686146A26088
:1054E000E1608C60D460D5E688060020800600204C
:1054F0005C0F00200F10000008100000142852D983
:10550000542800D996E06E239846280B80446F30CB
:10551000C10084E608239B46073BDC449B46DA44F3
:1055200043465246134200D0C8E64CE00122E3183D
:10553000596830000A435A60E368A268D3609A60F1
:1055400000F0E0F820000830E5E62B00E80808331A
:1055500030E6012360191D43656078613861C260DF
:1055600082601A004B460A4342603000E15000F06E
:10557000C9F820000830CEE69A09110039323831D6
:10558000D20094E7BC4260D0BC68626803239A43AF
:10559000531B954202D80F2B00DD70E7300000F05E
:1055A000B1F80020B7E65B23984680445C30C10028
:1055B00035E608235B429C46E1444B469B68013834
:1055C0004B4500D097E043460342F2D17B688B43C2
:1055D0007B604900994200D9BBE6002904D1B8E6B6
:1055E000042294464900E2440B42F9D0504660E65A
:1055F00010330093CBE68910023B8B4079680B4354
:105600007B606BE7009B300043445B421B051B0D36
:1056100019009B4600F078F8431C00D0F8E6002300
:105620009B46FAE6542A2AD81A0B11006F326E31C3
:10563000D2003CE7AA235B0098422AD8DD3B98467B
:10564000E80B80447830C100E9E553465B68009A76
:105650009C46534662445A60B3E6090500D0B0E662
:105660000200BC684A4401310A436260F9E65B46C5
:1056700042461A60B0E64446F3E641608EE7AA214E
:1056800049008A4224D8DA0B110078327731D200EF
:105690000DE71A4B984224D87C239846A80C8044E6
:1056A0007D30C100BBE5009A019B94464246083B11
:1056B00063449B1A009300239B46AEE62100300012
:1056C000083100F0AFF85346BC685B686268C8E612
:1056D0000A498A420BD89A0C11007D327C31D200E3
:1056E000E5E6FE217E237F209846890097E5FE228D
:1056F0007E219200DBE67B686BE7C0465405000024
:105700007047C0467047C046002370B5064D040080
:1057100008002B60FCF7DAF9431C00D070BD2B6841
:10572000002BFBD02360F9E7900F002010B5830712
:105730000AD00300032102E001330B4205D01A789E
:10574000002AF9D1181A10BD030019680C4A0D4C33
:105750008A188A4322420FD15968094A04338A18A9
:105760008A43224208D15968054A04338A188A4379
:105770002242F1D000E001331A78002AFBD1E1E7A0
:10578000FFFEFEFE80808080F8B50C000500FFF76C
:10579000B7FF204FBB685E6803239E431E4B341B3C
:1057A0009C466444240B013C113324039C4207DBD8
:1057B00000212800FFF7A8FFBB689B19984204D07E
:1057C0002800FFF79FFF0020F8BD28006142FFF787
:1057D0009BFF431C0DD00122BB68361B16435E6045
:1057E0000E4B28001A68141B1C60FFF78BFF01206A
:1057F000EAE700212800FFF787FFBA68831A0F2B1A
:10580000DEDD07490968401A0449086001210B439D
:105810005360D5E788060020EF0F0000600F0020DE
:1058200080060020F0B5C64605000C0000B5002932
:105830004FD0FFF765FF210008394C680126220090
:105840000320B2438F187B6883436248984683687D
:10585000BB426AD043467B6026421ED108239C4649
:105860000C688444091B12198C6864454FD0CB68BE
:10587000E3609C604346FC186468344211D1BB6805
:10588000554C4244A34200D17EE0FC68DC60A3603A
:10589000012313434B608A5006E0FC1864683442CD
:1058A000EDD016434E603A6080239B009A4213D29B
:1058B0005409D3080122A2404468DB00224342601D
:1058C00018188368C8608B608160D9602800FFF772
:1058D00019FF80BCB846F0BD530A042B3ED894098A
:1058E000260039343836E40004192368083C0327BD
:1058F0009C4242D05868B843904202D99B689C426F
:10590000F8D1DC68CC608B60A160D960DEE74346EB
:10591000F8184068304257D1FB68B86842441643D3
:10592000C36098604E608A50D0E71300434426421B
:1059300006D10A68891A8C689B18CA68E26094606C
:1059400001221A434A60254A816012689A42BDD8F2
:10595000234B28001968FFF717FFB7E7142B07D967
:10596000542B1AD8140B26006F346E36E400BBE7B4
:105970001E005C335B36DC00B6E70122B610B24095
:10598000466832434260BDE7D9609960CB608B6066
:10599000012313434B608A5098E7AA246400A34272
:1059A00005D8D40B260078347736E4009CE70D4CFC
:1059B000A34205D8940C26007D347C36E40093E79E
:1059C000FE247E26A4008FE7330013434B603A6029
:1059D0007CE7C04688060020900600208406002050
:1059E0005C0F002054050000F8B5C0460000000020
:1059F00001B40248844601BC604700BF5D0100203D
:105A000001B40248844601BC604700BF8501002004
:105A100001B40248844601BC604700BFC1000020B9
:105A20004C45445F5461736B000000004C45445F7B
:105A30005461736B32000000486172647761726573
:105A400020616C61726D20256420616C72656164F7
:105A50007920636C61696D65640000000A2A2A2A56
:105A60002050414E4943202A2A2A0A000A000000F9
:105A70004861726420617373657274004F7574209D
:105A80006F66206D656D6F727900000052656C6500
:105A900061736500626F6F74325F773235713038D1
:105AA00030000000312E352E310000007069636F28
:105AB00000000000626C696E6B000000536570208E
:105AC000313220323032330006005250BBFF3CB638
:105AD000AC5A001006005250E182887F945A0010A0
